:020000040800F2
:10000000000005207D090008050900080B0900080B
:1000100011090008170900081D0900080000000068
:10002000000000000000000000000000230900089C
:1000300031090008000000003F0900084D090008D0
:10004000CD090008CD090008CD090008CD09000838
:10005000CD090008CD090008CD090008CD09000828
:10006000CD090008CD090008CD090008CD09000818
:10007000CD090008CD090008CD090008CD09000808
:10008000CD090008CD090008CD090008CD090008F8
:10009000CD090008CD090008CD090008CD090008E8
:1000A000CD090008CD090008CD090008CD090008D8
:1000B000CD090008CD090008CD090008CD090008C8
:1000C000CD090008CD090008CD090008CD090008B8
:1000D000CD090008CD090008CD090008CD090008A8
:1000E000CD090008CD09000800000000CD09000876
:1000F000CD090008CD090008CD090008CD09000888
:10010000CD090008CD090008CD090008CD09000877
:10011000CD090008CD090008CD090008CD09000867
:10012000CD090008CD090008CD090008CD09000857
:10013000CD090008CD090008CD0900080000000025
:10014000CD090008CD090008CD090008CD09000837
:10015000CD090008CD090008CD090008CD09000827
:10016000CD090008CD090008CD090008CD09000817
:10017000CD090008CD09000800000000CD090008E5
:10018000CD090008CD090008CD090008CD090008F7
:10019000CD090008CD090008CD09000800000000C5
:1001A0000000000000000000CD090008CD09000893
:0C01B000CD09000800000000CD09000887
:1001BC0010B5054C237833B9044B13B10448AFF395
:1001CC0000800123237010BD2C00002000000000D3
:1001DC00043D000808B5034B1BB103490348AFF3BA
:1001EC00008008BD0000000030000020043D000825
:1001FC0010F8012B11F8013B012A28BF9A42F7D0C5
:10020C00D01A704753B94AB9002908BF00281CBF3F
:10021C004FF0FF314FF0FF3000F070B9ADF1080C2A
:10022C006DE904CE00F006F8DDF804E0DDE9022308
:10023C0004B070472DE9F047089E0D4604460F4662
:10024C00002B4AD18A42944665D9B2FA82F343B163
:10025C0002FA03FCC3F120029F4020FA02F217437A
:10026C009C404FEA1C4E1FFA8CF5B7FBFEF1220C9A
:10027C000EFB117742EA074201FB05F090420AD9C6
:10028C001CEB020201F1FF3780F01C81904240F21E
:10029C00198102396244121AA4B2B2FBFEF00EFBB1
:1002AC00102244EA024400FB05F5A5420AD91CEBD6
:1002BC00040400F1FF3280F00781A54240F2048172
:1002CC006444023840EA0140641B00211EB1DC404A
:1002DC000023C6E90043BDE8F0878B4208D9002E05
:1002EC0000F0ED800021C6E900050846BDE8F08766
:1002FC00B3FA83F1002949D1AB4202D3824200F216
:10030C00F880841A65EB030201201746002EE2D018
:10031C00C6E90047DFE702B9FFDEB2FA82F3002B31
:10032C0040F090808A1A4FEA1C471FFA8CFE01217C
:10033C00B2FBF7F507FB1520220C42EA00420EFB3C
:10034C0005F0904208D91CEB020205F1FF3802D2ED
:10035C00904200F2CB804546121AA4B2B2FBF7F0E1
:10036C0007FB102244EA02440EFB00FEA64508D906
:10037C001CEB040400F1FF3202D2A64500F2BB8054
:10038C001046A4EB0E0440EA05409FE7C1F120079C
:10039C008B4022FA07FC4CEA030C05FA01F420FA14
:1003AC0007F3FD404FEA1C492343B5FBF9F81FFA4C
:1003BC008CFE09FB18551C0C44EA054408FB0EF591
:1003CC00A54202FA01F200FA01F00BD91CEB04046D
:1003DC0008F1FF3A80F08880A54240F28580A8F1B0
:1003EC0002086444641B9DB2B4FBF9F309FB13448B
:1003FC0045EA044403FB0EFEA64508D91CEB040495
:10040C0003F1FF356CD2A6456AD9023B644443EA3A
:10041C000843A3FB0295A4EB0E04AC42C846AE46BF
:10042C0056D353D056B1B0EB080264EB0E0404FA69
:10043C0007F7CA40CC401743C6E9007418460021A0
:10044C00BDE8F087C3F1200102FA03FC20FA01F2A7
:10045C0025FA01F19D402A434FEA1C471FFA8CFEF6
:10046C00B1FBF7F007FB1015110C41EA054100FB3D
:10047C000EF58D4204FA03F408D91CEB010100F1CE
:10048C00FF382FD28D422DD902386144491B92B2CC
:10049C00B1FBF7F507FB151142EA014205FB0EF122
:1004AC00914208D91CEB020205F1FF3816D2914299
:1004BC0014D9023D6244521A45EA004138E73146EC
:1004CC00304608E73946E6E61046FBE64845A9D231
:1004DC00B9EB020865EB0C0E013BA3E74546EAE7D6
:1004EC002B4694E74046D1E7D0467BE7023D624479
:1004FC0032E708460AE76444023842E7704700BF17
:10050C002DE9B04388B000AF00F05BFA00F0B6F80C
:10051C0000F052F900F004F900F01AFC524B0022E2
:10052C001A60514B80229A604F4B0122DA604F497E
:10053C004D4800F0F3FC0346002B00D0FEE74C4B7B
:10054C004C4A1A604FF000024FF00003C7E9002339
:10055C001D237B610023FB6126E0FB69464A991849
:10056C007A69FB69D31A082B28BF08231A463B4625
:10057C00184603F0B3FB3E4B1968D7E90023002063
:10058C0000F07AFB0346002B00D0FEE7384B1B68CB
:10059C000833374A13604FF000024FF00003C7E9ED
:1005AC000023FB690833FB61FA697B699A42D4D357
:1005BC0000F0F0FB7B69591C0B46013B3B610023AF
:1005CC00884699464FF000024FF000034FEAC903EA
:1005DC0043EA58734FEAC80200230C461D464FF0FD
:1005EC0000024FF00003EB0043EA5473E200CB1D12
:1005FC00DB08DB00ADEB030D6B460033FB601C4BE3
:10060C001C4A1A600023BB611BE0194B1B68D3E921
:10061C000023C7E90023FA68BB69D0187A69BB6963
:10062C00D31A082B28BF08231A463B46194603F059
:10063C0055FB0F4B1B6808330D4A1360BB6908331D
:10064C00BB61BA697B699A42DFD3FA687B69134450
:10065C0000221A700849F868FFF7CAFD0346002B00
:10066C0000D0FEE7FEE700BF500000204C00002049
:10067C0048000020000008081C3D000880B598B018
:10068C0000AF07F1180348220021184603F0FAFACC
:10069C003B1D00221A605A609A60DA601A610020D1
:1006AC0000F050FF0346002B01D000F09DF8102302
:1006BC00BB6101237B630023BB636023FB630223C9
:1006CC007B640123BB640123FB643C233B65022355
:1006DC007B650223BB650223FB6507F118031846F3
:1006EC0000F0D4FF0346002B01D000F07DF80F235F
:1006FC007B600323BB600023FB6000233B61002372
:10070C007B613B1D0521184601F03CFC0346002B88
:10071C0001D000F069F800BF6037BD4680BD000015
:10072C0080B500AF224B234A1A60214B4FF4E132C3
:10073C005A601F4B00229A601D4B0022DA601C4B42
:10074C0000221A611A4B0C225A61194B00229A6131
:10075C00174B0022DA61164B00221A62144B00224E
:10076C005A62134B00229A62114802F01DFC034698
:10077C00002B01D000F038F800210D4803F0B8F937
:10078C000346002B01D000F02FF80021084803F09D
:10079C00EDF90346002B01D000F026F8044803F0D5
:1007AC006EF90346002B01D000F01EF800BF80BD8F
:1007BC00600000200038014080B483B000AF094BCA
:1007CC00DB6C084A43F00103D364064BDB6C03F08B
:1007DC0001037B607B6800BF0C37BD465DF8047B72
:1007EC00704700BF0010024080B400AF72B600BF6B
:1007FC00FEE7000080B483B000AF0F4B1B6E0E4AB7
:10080C0043F0010313660C4B1B6E03F001037B607A
:10081C007B68094B9B6D084A43F080539365064BEC
:10082C009B6D03F080533B603B6800BF0C37BD46AB
:10083C005DF8047B704700BF0010024080B5B0B07B
:10084C0000AF786007F1AC0300221A605A609A601E
:10085C00DA601A6107F1140398220021184603F09C
:10086C0011FA7B681B68224A93423CD101237B61BD
:10087C0000233B6507F11403184601F041FE0346C3
:10088C00002B01D0FFF7B0FF1A4B1B6E194A43F433
:10089C0080431366174B1B6E03F480433B613B692B
:1008AC00144BDB6C134A43F00103D364114BDB6C28
:1008BC0003F00103FB60FB684FF4C063C7F8AC3076
:1008CC000223C7F8B0300023C7F8B4300323C7F8AD
:1008DC00B8300723C7F8BC3007F1AC0319464FF00A
:1008EC00904000F07DFC00BFC037BD4680BD00BF0E
:1008FC00003801400010024080B400AFFEE780B425
:10090C0000AFFEE780B400AFFEE780B400AFFEE7B7
:10091C0080B400AFFEE780B400AF00BFBD465DF809
:10092C00047B704780B400AF00BFBD465DF8047B0C
:10093C00704780B400AF00BFBD465DF8047B7047C4
:10094C0080B500AF00F092F800BF80BD80B400AF5E
:10095C00064BD3F88830054A43F47003C2F888304C
:10096C0000BFBD465DF8047B704700BF00ED00E0A2
:10097C00DFF834D0FFF7EAFF0C480D490D4A00238D
:10098C0002E0D458C4500433C4188C42F9D30A4A38
:10099C000A4C002301E013600432A242FBD303F0A3
:1009AC0079F9FFF7ADFDFEE70000052000000020FF
:1009BC002C000020BC3D00082C000020F80000207A
:1009CC00FEE780B582B000AF0023FB71032000F07E
:1009DC001FF90F2000F00EF80346002B02D0012364
:1009EC00FB7101E0FFF706FFFB7918460837BD469F
:1009FC0080BD000080B584B000AF78600023FB732D
:100A0C00174B1B78002B23D0164B1A68144B1B78F2
:100A1C0019464FF47A73B3FBF1F3B2FBF3F31846B8
:100A2C0000F01DF90346002B0FD17B680F2B09D862
:100A3C00002279684FF0FF3000F0F5F80A4A7B6825
:100A4C00136007E00123FB7304E00123FB7301E057
:100A5C000123FB73FB7B18461037BD4680BD00BFDE
:100A6C0008000020000000200400002080B400AF2B
:100A7C00064B1B781A46064B1B681344044A13603A
:100A8C0000BFBD465DF8047B704700BF0800002026
:100A9C00F400002080B400AF034B1B681846BD4621
:100AAC005DF8047B704700BFF400002080B485B073
:100ABC0000AF78607B6803F00703FB600C4BDB68CE
:100ACC00BB60BA684FF6FF031340BB60FB681A02A9
:100ADC00BB68134343F0BF6343F40033BB60044A69
:100AEC00BB68D36000BF1437BD465DF8047B70470C
:100AFC0000ED00E080B400AF044BDB681B0A03F090
:100B0C0007031846BD465DF8047B704700ED00E016
:100B1C0080B483B000AF03463960FB7197F907309E
:100B2C00002B0ADB3B68DAB20C4997F9073012014B
:100B3C00D2B20B4483F800230AE03B68DAB20849CE
:100B4C00FB7903F00F03043B1201D2B20B441A766B
:100B5C0000BF0C37BD465DF8047B704700E100E038
:100B6C0000ED00E080B489B000AFF860B9607A6045
:100B7C00FB6803F00703FB61FB69C3F10703042B5C
:100B8C0028BF0423BB61FB690433062B02D9FB6924
:100B9C00033B00E000237B614FF0FF32BB6902FA9C
:100BAC0003F3DA43BB681A407B699A404FF0FF317C
:100BBC007B6901FA03F3D9437B680B401343184656
:100BCC002437BD465DF8047B7047000080B582B0C9
:100BDC0000AF78607B68013BB3F1807F01D30123C8
:100BEC000FE00A4A7B68013B53600F214FF0FF3046
:100BFC00FFF78EFF054B00229A60044B07221A6008
:100C0C00002318460837BD4680BD00BF10E000E049
:100C1C0080B582B000AF78607868FFF747FF00BFFF
:100C2C000837BD4680BD80B586B000AF0346B960BD
:100C3C007A60FB7300237B61FFF75CFF78617A6855
:100C4C00B9687869FFF78EFF024697F90F301146A5
:100C5C001846FFF75DFF00BF1837BD4680BD80B555
:100C6C0082B000AF78607868FFF7B0FF0346184693
:100C7C000837BD4680BD000080B586B000AFF86077
:100C8C00B960C7E9002300233B612F4B1B78012B74
:100C9C0001D1022353E02C4B01221A704CF250303C
:100CAC0000F088F80346FB75FB7D002B43D1264BE7
:100CBC0000225A60254B1B6803F48063002B09D07B
:100CCC00224B1B68214A23F4806313601E4B0222C3
:100CDC001A7702E01C4B00221A77FB68002B07D115
:100CEC00D7E90023B86800F0BDF801233B6110E0A0
:100CFC00FB68012B02D0FB68022B0AD13B6819461A
:100D0C00B86800F0D5F8FB68022B02D14FF48023B1
:100D1C003B614CF2503000F04DF80346FB753B69DB
:100D2C00002B06D0094B5A693B69DB43074913403A
:100D3C004B6100F00BFA044B00221A70FB7D184635
:100D4C001837BD4680BD00BF0C00002000200240BB
:100D5C0080B483B000AF0023FB710B4B5B69002B9D
:100D6C000BDA094B094A9A60074B094A9A60064B01
:100D7C005B69002B01DA0123FB71FB7918460C37F8
:100D8C00BD465DF8047B7047002002402301674597
:100D9C00AB89EFCD80B400AF054B5B69044A43F0DF
:100DAC000043536100231846BD465DF8047B704731
:100DBC000020024080B584B000AF7860FFF76AFE77
:100DCC00F8600DE07B68B3F1FF3F09D0FFF762FEDE
:100DDC000246FB68D31A7A689A4201D8032336E09C
:100DEC001D4B1B6903F48033002BEBD11A4B1A6992
:100DFC001A4B1340BB60BB68002B1ED0184B5A68B3
:100E0C00BB681343164A5360BB6803F07043002B56
:100E1C0007D0114B9A69BB6803F070430E4913431A
:100E2C008B61BB6823F07043002B04D00A4ABB686B
:100E3C0023F070431361012309E0074B1B6903F096
:100E4C000103002B02D0044B01221A610023184627
:100E5C001037BD4680BD00BF00200240FAC302001F
:100E6C000C00002080B485B000AFF860C7E9002307
:100E7C000E4B5B690D4A43F001035361FB683A6802
:100E8C001A60BFF36F8F00BFD7E900014FF000026B
:100E9C004FF000030A000023F968043113460B607D
:100EAC0000BF1437BD465DF8047B7047002002403C
:100EBC0080B489B000AF786039608023FB777B68A1
:100ECC00BB613B687B61144B5B69134A43F4802321
:100EDC005361EFF31083FB60FB683B6172B600BF9C
:100EEC007B691A68BB691A60BB690433BB617B6997
:100EFC0004337B61FB7F013BFB77FB7F002BEFD146
:100F0C003B69BB60BB6883F3108800BF00BF24370C
:100F1C00BD465DF8047B70470020024080B584B06C
:100F2C0000AF78603960494B1B78012B01D102234B
:100F3C0087E0464B01221A704CF25030FFF73AFF13
:100F4C000346FB73FB7B002B77D1404B00225A608E
:100F5C003F4B1B6803F40073002B13D03C4B1B68F6
:100F6C0003F48063002B09D0394B1B68384A23F4F7
:100F7C0080631360354B03221A7716E0334B012242
:100F8C001A7712E0324B1B6803F48063002B09D0F4
:100F9C002F4B1B682E4A23F4806313602B4B0222C9
:100FAC001A7702E0294B00221A777B681B68012B09
:100FBC0013D17B685B68184600F04CF84CF250304B
:100FCC00FFF7F8FE0346FB73214B5B69204A23F4C1
:100FDC00004323F0040353612DE03B684FF0FF32D4
:100FEC001A607B689B68BB601DE07B685B68194678
:100FFC00B86800F067F84CF25030FFF7DBFE0346A0
:10100C00FB73134B5B69124A23F47E7323F00203C8
:10101C005361FB7B002B03D03B68BA681A600AE073
:10102C00BB680133BB607B689A687B68DB681344E0
:10103C00BA689A42D9D300F089F8044B00221A708E
:10104C00FB7B18461037BD4680BD00BF0C0000204E
:10105C000020024080B483B000AF7860184B1B6A4C
:10106C0003F48003002B16D07B6803F00103002BE4
:10107C0005D0134B5B69124A43F0040353617B6840
:10108C0003F00203002B0ED00D4B5B690C4A43F4AA
:10109C000043536107E00A4B5B69094A43F4004380
:1010AC0043F004035361064B5B69054A43F48033F8
:1010BC00536100BF0C37BD465DF8047B704700BF21
:1010CC000020024080B483B000AF786039601E4BC2
:1010DC001B6A03F48003002B06D11B4B5B691A4A75
:1010EC0023F40063536111E03B6803F00103002B10
:1010FC0006D0154B5B69144A23F40063536105E079
:10110C00114B5B69104A43F4006353610E4B5B69EE
:10111C0023F47E727B68DB0003F4FF630A491343FC
:10112C004B61094B5B69084A43F002035361064B60
:10113C005B69054A43F48033536100BF0C37BD46ED
:10114C005DF8047B704700BF0020024080B483B080
:10115C0000AF214B1B7FFB71FB79012B02D0FB797C
:10116C00032B17D11D4B1B681C4A23F4007313600F
:10117C001A4B1B68194A43F400631360174B1B6826
:10118C00164A23F400631360144B1B68134A43F490
:10119C0000731360FB79022B02D0FB79032B11D166
:1011AC000E4B1B680D4A43F4805313600B4B1B68AA
:1011BC000A4A23F480531360084B1B68074A43F414
:1011CC0080631360044B00221A7700BF0C37BD46B6
:1011DC005DF8047B704700BF0C000020002002402B
:1011EC0080B487B000AF7860396000237B6166E122
:1011FC003B681A6801217B6901FA03F31340FB6019
:10120C00FB68002B00F058813B685B6803F003031C
:10121C00012B05D03B685B6803F00303022B30D134
:10122C007B689B683B617B695B00032202FA03F3DA
:10123C00DB433A6913403B613B68DA687B695B00CE
:10124C0002FA03F33A6913433B617B683A699A608B
:10125C007B685B683B6101227B6902FA03F3DB4329
:10126C003A6913403B613B685B681B0903F0010260
:10127C007B6902FA03F33A6913433B617B683A6971
:10128C005A603B685B6803F00303032B17D07B6841
:10129C00DB683B617B695B00032202FA03F3DB43EF
:1012AC003A6913403B613B689A687B695B0002FAC0
:1012BC0003F33A6913433B617B683A69DA603B6834
:1012CC005B6803F00303022B23D17B69DA087B688C
:1012DC00083253F822303B617B6903F007039B0013
:1012EC000F2202FA03F3DB433A6913403B613B687C
:1012FC001A697B6903F007039B0002FA03F33A694E
:10130C0013433B617B69DA087B680832396943F81F
:10131C0022107B681B683B617B695B00032202FA2D
:10132C0003F3DB433A6913403B613B685B6803F0B2
:10133C0003027B695B0002FA03F33A6913433B61D6
:10134C007B683A691A603B685B6803F44033002B96
:10135C0000F0B280614B1B6E604A43F001031366D0
:10136C005E4B1B6E03F00103BB60BB685C4A7B6980
:10137C009B08023352F823303B617B6903F0030373
:10138C009B000F2202FA03F3DB433A6913403B61E3
:10139C007B68B3F1904F2BD07B68524A934225D097
:1013AC007B68514A93421FD07B68504A934219D0B4
:1013BC007B684F4A934213D07B684E4A93420DD0C0
:1013CC007B684D4A934207D07B684C4A934201D1CB
:1013DC0007230EE008230CE006230AE0052308E0AF
:1013EC00042306E0032304E0022302E0012300E0CF
:1013FC0000237A6902F00302920093403A69134386
:10140C003B6137497B699B0802333A6941F82320D9
:10141C003B4B9B683B61FB68DB433A6913403B6188
:10142C003B685B6803F48013002B03D03A69FB68BC
:10143C0013433B61324A3B699360314BDB683B6140
:10144C00FB68DB433A6913403B613B685B6803F420
:10145C000013002B03D03A69FB6813433B61284A05
:10146C003B69D360264B5B683B61FB68DB433A69A5
:10147C0013403B613B685B6803F40033002B03D0E3
:10148C003A69FB6813433B611D4A3B6953601C4B33
:10149C001B683B61FB68DB433A6913403B613B686B
:1014AC005B6803F48033002B03D03A69FB68134369
:1014BC003B61134A3B6913607B6901337B613B6879
:1014CC001A687B6922FA03F3002B7FF491AE00BFFC
:1014DC0000BF1C37BD465DF8047B7047001002400E
:1014EC00000001400004004800080048000C0048BF
:1014FC00001000480014004800180048001C004868
:10150C000004014080B400AF0D4B1B6803F4C063B2
:10151C00B3F5806F02D14FF480630BE0084BD3F826
:10152C00803003F48073B3F5807F02D14FF40073E5
:10153C0000E000231846BD465DF8047B704700BFF1
:10154C000070004080B485B000AF78607B68002BE1
:10155C0041D14B4B1B6803F4C063B3F5806F31D1A1
:10156C00474BD3F88030464A23F48073C2F880305E
:10157C00434B1B6823F4C063414A43F4007313606C
:10158C00404B1B68322202FB03F33F4AA2FB0323AE
:10159C009B0C0133FB6002E0FB68013BFB60384BAA
:1015AC005B6903F48063B3F5806F02D1FB68002B99
:1015BC00F2D1334B5B6903F48063B3F5806F58D180
:1015CC00032357E02E4BD3F880302D4A23F480733D
:1015DC00C2F880304DE07B68B3F5007F41D1284BD9
:1015EC001B6803F4C063B3F5806F31D1244BD3F87F
:1015FC008030234A43F48073C2F88030204B1B6840
:10160C0023F4C0631E4A43F4007313601D4B1B6824
:10161C00322202FB03F31C4AA2FB03239B0C013373
:10162C00FB6002E0FB68013BFB60154B5B6903F45C
:10163C008063B3F5806F02D1FB68002BF2D1104BA5
:10164C005B6903F48063B3F5806F12D1032311E05F
:10165C000B4BD3F880300A4A43F48073C2F88030C5
:10166C0007E0074B1B6823F4C063054A43F480630F
:10167C001360002318461437BD465DF8047B704791
:10168C00007000400000002083DE1B4380B58AB050
:10169C0000AF78607B68002B02D1012300F068BC9E
:1016AC00974B9B6803F00C033B62954BDB6803F094
:1016BC000303FB617B681B6803F01003002B00F035
:1016CC00E6803B6A002B07D03B6A0C2B40F08D80E8
:1016DC00FB69012B40F08980894B1B6803F00203E6
:1016EC00002B06D07B68DB69002B02D1012300F0B4
:1016FC003FBC7B685A6A824B1B6803F00803002BC3
:10170C0004D07F4B1B6803F0F00305E07C4BD3F84F
:10171C0094301B0903F0F003934224D27B685B6A7C
:10172C00184600F02DFE0346002B02D0012300F0DA
:10173C001FBC734B1B68724A43F008031360704B59
:10174C001B6823F0F0027B685B6A6D4913430B60E6
:10175C006B4B5B6823F47F427B681B6A1B026849F6
:10176C0013434B6025E0664B1B68654A43F0080346
:10177C001360634B1B6823F0F0027B685B6A604963
:10178C0013430B605E4B5B6823F47F427B681B6AE0
:10179C001B025B4913434B603B6A002B09D17B68EE
:1017AC005B6A184600F0ECFD0346002B01D00123C8
:1017BC00DEE300F021FD0246514B9B681B0903F050
:1017CC000F035049CB5C03F01F0322FA03F34E4A7C
:1017DC0013604E4B1B681846FFF70CF90346FB755C
:1017EC00FB7D002B52D0FB7DC2E37B68DB69002BB9
:1017FC0032D0434B1B68424A43F001031360FFF79E
:10180C0049F9B86108E0FFF745F90246BB69D31AFC
:10181C00022B01D90323ABE3394B1B6803F0020302
:10182C00002BF0D0364B1B68354A43F0080313608D
:10183C00334B1B6823F0F0027B685B6A304913431F
:10184C000B602F4B5B6823F47F427B681B6A1B0287
:10185C002B4913434B601AE0294B1B68284A23F091
:10186C0001031360FFF716F9B86108E0FFF712F9EE
:10187C000246BB69D31A022B01D9032378E3204B10
:10188C001B6803F00203002BF0D100E000BF7B6863
:10189C001B6803F00103002B73D03B6A082B05D0A7
:1018AC003B6A0C2B0ED1FB69032B0BD1144B1B6821
:1018BC0003F40033002B63D07B685B68002B5FD193
:1018CC00012355E37B685B68B3F5803F06D10C4B75
:1018DC001B680B4A43F48033136025E07B685B681C
:1018EC00B3F5A02F14D1064B1B68054A43F4802393
:1018FC001360034B1B68024A43F48033136013E0FC
:10190C00001002403C3D00080000002004000020B4
:10191C008F4B1B688E4A23F4803313608C4B1B68EF
:10192C008B4A23F4802313607B685B68002B13D0F5
:10193C00FFF7B0F8B86108E0FFF7ACF80246BB69F6
:10194C00D31A642B01D9032312E3814B1B6803F4D4
:10195C000033002BF0D014E0FFF79CF8B86108E0DE
:10196C00FFF798F80246BB69D31A642B01D90323FD
:10197C00FEE2774B1B6803F40033002BF0D100E040
:10198C0000BF7B681B6803F00203002B60D03B6A2E
:10199C00042B05D03B6A0C2B19D1FB69022B16D1F9
:1019AC006B4B1B6803F48063002B05D07B68DB68F2
:1019BC00002B01D10123DBE2654B5B6823F0FE4277
:1019CC007B681B691B06624913434B6040E07B68D4
:1019DC00DB68002B23D05E4B1B685D4A43F480739D
:1019EC001360FFF757F8B86108E0FFF753F80246A9
:1019FC00BB69D31A022B01D90323B9E2544B1B68E0
:101A0C0003F48063002BF0D0514B5B6823F0FE4253
:101A1C007B681B691B064E4913434B6018E04C4B0B
:101A2C001B684B4A23F480731360FFF733F8B861DB
:101A3C0008E0FFF72FF80246BB69D31A022B01D935
:101A4C00032395E2424B1B6803F48063002BF0D117
:101A5C007B681B6803F00803002B00F082807B6816
:101A6C005B69002B5FD03A4BD3F894303B617B68B9
:101A7C009A693B6903F010039A4237D03B6903F033
:101A8C000203002B06D03B6903F00103002B01D1AC
:101A9C0001236DE23B6903F00103002B1BD02C4B9F
:101AAC00D3F894302A4A23F00103C2F89430FEF79D
:101ABC00F1FFB86108E0FEF7EDFF0246BB69D31AEF
:101ACC00112B01D9032353E2214BD3F8943003F0AB
:101ADC000203002BEFD11E4BD3F8943023F01002ED
:101AEC007B689B691A491343C1F89430184BD3F89F
:101AFC009430174A43F00103C2F89430FEF7CAFF42
:101B0C00B86108E0FEF7C6FF0246BB69D31A112B79
:101B1C0001D903232CE20E4BD3F8943003F00203CB
:101B2C00002BEFD01DE00A4BD3F89430084A23F079
:101B3C000103C2F89430FEF7ADFFB8610AE0FEF77E
:101B4C00A9FF0246BB69D31A112B03D903230FE259
:101B5C0000100240834BD3F8943003F00203002BA7
:101B6C00EDD17B681B6803F00403002B00F0BD80F3
:101B7C00002387F827307B4B9B6D03F08053002BA1
:101B8C000ED1784B9B6D774A43F080539365754B20
:101B9C009B6D03F08053FB60FB68012387F82730B3
:101BAC00714B1B6803F48073002B18D16E4B1B68B0
:101BBC006D4A43F480731360FEF76CFFB86108E064
:101BCC00FEF768FF0246BB69D31A022B01D9032327
:101BDC00CEE1654B1B6803F48073002BF0D07B685F
:101BEC009B6803F00103002B2CD05E4BD3F8903094
:101BFC0023F080027B689B6803F0800359491343F0
:101C0C00C1F890307B689B6803F00403002B10D064
:101C1C00544BD3F89030534A43F00403C2F890303D
:101C2C00504BD3F890304F4A43F00103C2F8903038
:101C3C0018E04C4BD3F890304A4A43F00103C2F8F9
:101C4C0090300FE0474BD3F89030464A23F0010315
:101C5C00C2F89030434BD3F89030424A23F004033F
:101C6C00C2F890307B689B68002B16D0FEF712FFF1
:101C7C00B8610AE0FEF70EFF0246BB69D31A41F2C7
:101C8C008832934201D9032372E1364BD3F890305A
:101C9C0003F00203002BEDD01DE0FEF7FBFEB86154
:101CAC000AE0FEF7F7FE0246BB69D31A41F288320E
:101CBC00934201D903235BE12A4BD3F8903003F014
:101CCC000203002BEDD1274BD3F89030254A23F09B
:101CDC008003C2F8903097F82730012B05D1214BA7
:101CEC009B6D204A23F0805393657B681B6803F03F
:101CFC002003002B41D07B689B6A002B1CD0194B16
:101D0C00D3F89830174A43F00103C2F89830FEF725
:101D1C00C1FEB86108E0FEF7BDFE0246BB69D31AEE
:101D2C00022B01D9032323E10E4BD3F8983003F097
:101D3C000203002BEFD020E00A4BD3F89830094A6D
:101D4C0023F00103C2F89830FEF7A4FEB8610DE051
:101D5C00FEF7A0FE0246BB69D31A022B06D9032359
:101D6C0006E100BF0010024000700040824BD3F827
:101D7C00983003F00203002BEAD17B68DB6A002B5E
:101D8C0000F0F5807B68DB6A022B40F0CB807A4B4D
:101D9C00DB68FB61FB6903F003027B681B6B9A42F7
:101DAC002CD1FB6903F0F0027B685B6B013B1B01E0
:101DBC009A4223D1FB6903F4FE427B689B6B1B02A6
:101DCC009A421BD1FB6903F078427B68DB6BDB0624
:101DDC009A4213D1FB6903F4C0027B681B6C5B084D
:101DEC00013B5B059A4209D1FB6903F0C0627B6839
:101DFC005B6C5B08013B5B069A426DD03B6A0C2B1B
:101E0C0068D05D4B1B6803F08063002B05D15A4BE7
:101E1C001B6803F08053002B01D00123A8E0564B24
:101E2C001B68554A23F080731360FEF733FEB861CC
:101E3C0008E0FEF72FFE0246BB69D31A022B01D92C
:101E4C00032395E04C4B1B6803F00073002BF0D17F
:101E5C00494BDA68494B13407A68116B7A68526BBC
:101E6C00013A120111437A68926B120211437A689B
:101E7C00126C5208013A520511437A68526C52089E
:101E8C00013A520611437A68D26BD2060A433A4998
:101E9C001343CB60384B1B68374A43F08073136095
:101EAC00354BDB68344A43F08073D360FEF7F2FDA8
:101EBC00B86108E0FEF7EEFD0246BB69D31A022BAF
:101ECC0001D9032354E02C4B1B6803F00073002B47
:101EDC00F0D04CE001234BE0274B1B6803F0007360
:101EEC00002B44D1244B1B68234A43F080731360AE
:101EFC00214BDB68204A43F08073D360FEF7CAFDA8
:101F0C00B86108E0FEF7C6FD0246BB69D31A022B86
:101F1C0001D903232CE0184B1B6803F00073002B32
:101F2C00F0D024E03B6A0C2B1FD0134B1B68124AD9
:101F3C0023F080731360FEF7ADFDB86108E0FEF787
:101F4C00A9FD0246BB69D31A022B01D903230FE06A
:101F5C00094B1B6803F00073002BF0D1064BDA68B9
:101F6C000549074B1340CB6001E0012300E000233F
:101F7C0018462837BD4680BD001002400C809D01DC
:101F8C00FCFFEEFE80B586B000AF786039600023B0
:101F9C007B617B68002B01D101231DE1904B1B68F9
:101FAC0003F00F033A689A4210D98D4B1B6823F04B
:101FBC000F028B493B6813430B60894B1B6803F082
:101FCC000F033A689A4201D0012305E17B681B6834
:101FDC0003F00203002B10D07B689A68814B9B683E
:101FEC0003F0F0039A4208D97E4B9B6823F0F00271
:101FFC007B689B687B4913438B607B681B6803F091
:10200C000103002B79D07B685B68032B1ED1754BC9
:10201C001B6803F00073002B01D10123DCE000F0FE
:10202C0009FA0346704A934246D96E4B9B6803F0FB
:10203C00F003002B40D16B4B9B6823F0F003694AF3
:10204C0043F08003936080237B6135E07B685B68A1
:10205C00022B07D1634B1B6803F40033002B15D103
:10206C000123B9E07B685B68002B07D15D4B1B68D3
:10207C0003F00203002B09D10123ADE0594B1B687F
:10208C0003F48063002B01D10123A5E000F0B4F828
:10209C000346554A93420FD9524B9B6803F0F00309
:1020AC00002B09D14F4B9B6823F0F0034D4A43F0B2
:1020BC008003936080237B614A4B9B6823F003026F
:1020CC007B685B68474913438B60FEF7E3FC386120
:1020DC000AE0FEF7DFFC02463B69D31A41F2883274
:1020EC00934201D9032377E03E4B9B6803F00C022B
:1020FC007B685B689B009A42EBD17B69802B05D196
:10210C00384B9B68374A23F0F00393607B681B685D
:10211C0003F00203002B10D07B689A68314B9B684C
:10212C0003F0F0039A4208D22E4B9B6823F0F00286
:10213C007B689B682B4913438B60294B1B6803F00E
:10214C000F033A689A4210D2254B1B6823F00F02FA
:10215C0023493B6813430B60214B1B6803F00F03AF
:10216C003A689A4201D0012336E07B681B6803F081
:10217C000403002B08D01B4B9B6823F4E0627B68A4
:10218C00DB68184913438B607B681B6803F00803FA
:10219C00002B09D0134B9B6823F460527B681B699E
:1021AC00DB00104913438B6000F026F802460D4B00
:1021BC009B681B0903F00F030C49CB5C03F01F0356
:1021CC0022FA03F30A4A13600A4B1B681846FEF7FF
:1021DC0011FC0346FB73FB7B18461837BD4680BDCC
:1021EC00002002400010024000B4C4043C3D000832
:1021FC00000000200400002080B489B000AF002350
:10220C00FB610023BB613E4B9B6803F00C033B61FD
:10221C003B4BDB6803F00303FB603B69002B05D0F1
:10222C003B690C2B21D1FB68012B1ED1344B1B6855
:10223C0003F00803002B07D1314BD3F894301B0A61
:10224C0003F00F03FB6105E02D4B1B681B0903F02A
:10225C000F03FB612B4AFB6952F82330FB613B698E
:10226C00002B0DD1FB69BB610AE03B69042B02D149
:10227C00254BBB6104E03B69082B01D1234BBB61AF
:10228C003B690C2B34D11E4BDB6803F00303BB60A2
:10229C00BB68022B03D0BB68032B03D005E01A4BA1
:1022AC007B6105E0194B7B6102E0FB697B6100BF40
:1022BC00134BDB681B0903F00F0301337B60104BDE
:1022CC00DB681B0A03F07F037A6903FB02F27B686D
:1022DC00B2FBF3F37B610A4BDB685B0E03F0030389
:1022EC0001335B003B607A693B68B2FBF3F3BB6183
:1022FC00BB6918462437BD465DF8047B704700BFA8
:10230C0000100240543D00080024F40000127A0032
:10231C0080B400AF034B1B681846BD465DF8047BC8
:10232C00704700BF0000002080B500AFFFF7F0FF42
:10233C000246064B9B681B0A03F007030449CB5C5F
:10234C0003F01F0322FA03F3184680BD001002406D
:10235C004C3D000880B500AFFFF7DAFF0246064B94
:10236C009B68DB0A03F007030449CB5C03F01F03F3
:10237C0022FA03F3184680BD001002404C3D0008C1
:10238C0080B586B000AF786000233B61274B9B6D16
:10239C0003F08053002B03D0FFF7B4F8786114E0FE
:1023AC00224B9B6D214A43F0805393651F4B9B6DD1
:1023BC0003F08053FB60FB68FFF7A4F878611B4BBC
:1023CC009B6D1A4A23F0805393657B69B3F5007FAC
:1023DC000BD17B68802B13D97B68A02B02D90223ED
:1023EC003B610DE001233B610AE07B687F2B02D946
:1023FC0002233B6104E07B68702B01D101233B611C
:10240C000B4B1B6823F00F0209493B6913430B600C
:10241C00074B1B6803F00F033A699A4201D0012362
:10242C0000E0002318461837BD4680BD001002405E
:10243C000020024080B487B000AF2D4BDB6803F066
:10244C000303FB60FB68032B0BD0FB68032B25D825
:10245C00FB68012B08D0FB68022B1FD1254B3B617D
:10246C001FE0254B3B611CE0214B1B6803F008036C
:10247C00002B07D11E4BD3F894301B0A03F00F032B
:10248C007B6105E01A4B1B681B0903F00F037B6192
:10249C001A4A7B6952F823303B6102E000233B610E
:1024AC0000BF134BDB681B0903F00F030133BB6048
:1024BC000F4BDB681B0A03F07F033A6903FB02F244
:1024CC00BB68B2FBF3F33B61094BDB685B0E03F0BB
:1024DC00030301335B007B603A697B68B2FBF3F367
:1024EC003B603B6818461C37BD465DF8047B704763
:1024FC00001002400024F40000127A00543D000841
:10250C0080B586B000AF78600023FB740023BB74E9
:10251C007B681B6803F40063002B40D07B68DB6E88
:10252C00802B2AD0802B25D8602B26D0602B21D84D
:10253C00402B06D0402B1DD8002B09D0202B10D0BF
:10254C0018E0894BDB68884A43F48033D36015E08C
:10255C007B6804330021184600F03EFB0346FB74F5
:10256C000CE07B6820330021184600F029FC034660
:10257C00FB7403E00123FB7400E000BFFB7C002B29
:10258C000BD1794BD3F89C3023F0E0027B68DB6EE7
:10259C0075491343C1F89C3001E0FB7CBB747B682C
:1025AC001B6803F48053002B47D07B681B6FB3F57B
:1025BC00806F30D0B3F5806F2AD8B3F5407F2AD026
:1025CC00B3F5407F24D8B3F5007F08D0B3F5007F76
:1025DC001ED8002B0AD0B3F5807F10D018E0624BC8
:1025EC00DB68614A43F48033D36015E07B680433C5
:1025FC000021184600F0F0FA0346FB740CE07B68EF
:10260C0020330021184600F0DBFB0346FB7403E08B
:10261C000123FB7400E000BFFB7C002B0BD1524B61
:10262C00D3F89C3023F4E0627B681B6F4E49134354
:10263C00C1F89C3001E0FB7CBB747B681B6803F425
:10264C000033002B00F09F8000237B74464B9B6D66
:10265C0003F08053002B01D1012300E00023002B59
:10266C000DD0414B9B6D404A43F0805393653E4BDC
:10267C009B6D03F08053BB60BB6801237B743B4BA9
:10268C001B683A4A43F480731360FEF703FAF86050
:10269C0009E0FEF7FFF90246FB68D31A022B02D9B8
:1026AC000323FB7405E0314B1B6803F48073002B90
:1026BC00EFD0FB7C002B5BD12B4BD3F8903003F489
:1026CC0040737B617B69002B1FD07B68D3F89430FF
:1026DC007A699A4219D0244BD3F8903023F4407382
:1026EC007B61214BD3F890301F4A43F48033C2F8FE
:1026FC0090301D4BD3F890301B4A23F48033C2F832
:10270C009030194A7B69C2F890307B6903F0010361
:10271C00002B16D0FEF7BEF9F8600BE0FEF7BAF905
:10272C000246FB68D31A41F28832934202D9032342
:10273C00FB7406E00C4BD3F8903003F00203002B33
:10274C00ECD0FB7C002B0CD1074BD3F8903023F44E
:10275C0040727B68D3F8943003491343C1F890302E
:10276C0008E0FB7CBB7405E00010024000700040E8
:10277C00FB7CBB747B7C012B05D1A04B9B6D9F4AD2
:10278C0023F0805393657B681B6803F00103002BD7
:10279C000AD09A4BD3F8883023F003027B68DB6BAA
:1027AC0096491343C1F888307B681B6803F0020319
:1027BC00002B0AD0914BD3F8883023F00C027B68A5
:1027CC001B6C8E491343C1F888307B681B6803F07F
:1027DC000403002B0AD0894BD3F8883023F0300245
:1027EC007B685B6C85491343C1F888307B681B6838
:1027FC0003F00803002B0AD0804BD3F8883023F069
:10280C00C0027B689B6C7D491343C1F888307B68A0
:10281C001B6803F01003002B0AD0784BD3F88830D8
:10282C0023F440727B68DB6C74491343C1F8883025
:10283C007B681B6803F02003002B0AD06F4BD3F886
:10284C00883023F440627B681B6D6C491343C1F8DC
:10285C0088307B681B6803F40073002B0AD0674B2D
:10286C00D3F8883023F440227B685B6E63491343B2
:10287C00C1F888307B681B6803F48063002B0AD096
:10288C005E4BD3F8883023F440127B689B6E5B4917
:10289C001343C1F888307B681B6803F04003002B9E
:1028AC000AD0564BD3F8883023F440527B685B6DCA
:1028BC0052491343C1F888307B681B6803F08003CE
:1028CC00002B0AD04D4BD3F8883023F440427B6860
:1028DC009B6D4A491343C1F888307B681B6803F42D
:1028EC008073002B0AD0454BD3F8883023F4403248
:1028FC007B68DB6D41491343C1F888307B681B68EA
:10290C0003F48013002B0AD03C4BD3F89C3023F0FB
:10291C0003027B681B6E39491343C1F89C307B68FA
:10292C001B6803F40053002B28D0344BD3F88830A9
:10293C0023F040627B685B6F30491343C1F88830E9
:10294C007B685B6FB3F1006F06D12C4BDB682B4AB5
:10295C0043F48013D36011E07B685B6FB3F1806F3D
:10296C000CD17B6804330121184600F035F903467D
:10297C00FB74FB7C002B01D0FB7CBB747B681B685D
:10298C0003F40023002B4DD07B689B6FB3F5804F75
:10299C0008D11A4BD3F89C30184A43F48043C2F840
:1029AC009C3012E0154BD3F89C30144A23F480432E
:1029BC00C2F89C30114BD3F8883023F040627B680E
:1029CC009B6F0E491343C1F888307B689B6FB3F142
:1029DC00006F06D1094BDB68084A43F48013D360BF
:1029EC0020E07B689B6FB3F5804F09D1034BDB680C
:1029FC00024A43F48033D36014E000BF001002405D
:102A0C007B689B6FB3F1806F0CD17B680433012121
:102A1C00184600F0E1F80346FB74FB7C002B01D058
:102A2C00FB7CBB747B681B6803F48023002B28D0D1
:102A3C00684BD3F8883023F040627B68DB6F6549C4
:102A4C001343C1F888307B68DB6FB3F1006F06D19C
:102A5C00604BDB685F4A43F48013D36011E07B6802
:102A6C00DB6FB3F1806F0CD17B6804330121184606
:102A7C0000F0B2F80346FB74FB7C002B01D0FB7C0E
:102A8C00BB747B681B6803F48043002B1ED0514B36
:102A9C00D3F8883023F040527B68D3F880304D490E
:102AAC001343C1F888307B68D3F88030B3F1805F72
:102ABC000CD17B6804330221184600F08DF80346D4
:102ACC00FB74FB7C002B01D0FB7CBB747B681B680C
:102ADC0003F48033002B0BD03E4BD3F89C3023F007
:102AEC0004027B68D3F884303A491343C1F89C3014
:102AFC007B681B6803F40013002B0BD0354BD3F809
:102B0C009C3023F018027B68D3F88830314913438A
:102B1C00C1F89C307B681B6803F48003002B35D014
:102B2C002C4B1B682B4A23F080531360FDF7B2FF2C
:102B3C00F86009E0FDF7AEFF0246FB68D31A022BE2
:102B4C0002D90323FB7405E0224B1B6803F00053EE
:102B5C00002BEFD1FB7C002B13D11E4BD3F89C30F8
:102B6C0023F440327B68D3F88C301A491343C1F8F4
:102B7C009C307B6820330221184600F021F9034673
:102B8C00FB74FB7C002B01D0FB7CBB747B681B684B
:102B9C0003F08073002B17D00E4BD3F89C3023F42A
:102BAC0040127B68D3F890300A491343C1F89C302B
:102BBC007B68D3F89030B3F5001F05D1054BDB686B
:102BCC00044A43F48013D360BB7C18461837BD46C7
:102BDC0080BD00BF0010024080B584B000AF7860AB
:102BEC0039600023FB73724BDB6803F00303002B8B
:102BFC000ED06F4BDB6803F003027B681B689A42B4
:102C0C0003D17B681B68002B42D10123FB733FE08F
:102C1C007B681B68032B18D0032B25D8012B02D003
:102C2C00022B09D020E0624B1B6803F00203002B3F
:102C3C001DD10123FB731AE05D4B1B6803F4806309
:102C4C00002B16D10123FB7313E0594B1B6803F4C3
:102C5C000033002B0FD1564B1B6803F48023002B41
:102C6C0009D10123FB7306E00123FB7304E000BFD1
:102C7C0002E000BF00E000BFFB7B002B08D14C4BF7
:102C8C00DB6823F003027B681B6849491343CB6064
:102C9C00FB7B002B40F08680454B1B68444A23F09D
:102CAC0080631360FDF7F6FEB86009E0FDF7F2FEF5
:102CBC000246BB68D31A022B02D90323FB7305E02F
:102CCC003B4B1B6803F00063002BEFD1FB7B002B0D
:102CDC0068D13B68002B13D1354B1A69354B134027
:102CEC007A68926811027A68D268D20611437A68BF
:102CFC005268013A12010A432D4913430B612DE02E
:102D0C003B68012B15D12A4B1A692B4B13407A685F
:102D1C00926811027A6812695208013A52051143FD
:102D2C007A685268013A12010A43214913430B6134
:102D3C0014E01F4B1A69214B13407A6892681102F8
:102D4C007A6852695208013A520611437A685268FD
:102D5C00013A12010A43164913430B61144B1B68C9
:102D6C00134A43F080631360FDF794FEB86009E0EA
:102D7C00FDF790FE0246BB68D31A022B02D903233F
:102D8C00FB7305E00A4B1B6803F00063002BEFD0CC
:102D9C00FB7B002B06D1064B1A697B689B690449A7
:102DAC0013430B61FB7B18461037BD4680BD00BF3B
:102DBC00001002400F80FF070F809FFF0F80FFF96C
:102DCC0080B584B000AF786039600023FB73724B20
:102DDC00DB6803F00303002B0ED06F4BDB6803F0B2
:102DEC0003027B681B689A4203D17B681B68002B2B
:102DFC0042D10123FB733FE07B681B68032B18D087
:102E0C00032B25D8012B02D0022B09D020E0624BDA
:102E1C001B6803F00203002B1DD10123FB731AE086
:102E2C005D4B1B6803F48063002B16D10123FB73ED
:102E3C0013E0594B1B6803F40033002B0FD1564B96
:102E4C001B6803F48023002B09D10123FB7306E0DC
:102E5C000123FB7304E000BF02E000BF00E000BFF1
:102E6C00FB7B002B08D14C4BDB6823F003027B6807
:102E7C001B6849491343CB60FB7B002B40F08680D9
:102E8C00454B1B68444A23F080531360FDF702FE48
:102E9C00B86009E0FDF7FEFD0246BB68D31A022BB1
:102EAC0002D90323FB7305E03B4B1B6803F0005373
:102EBC00002BEFD1FB7B002B68D13B68002B13D18F
:102ECC00354B5A69354B13407A68926811027A680F
:102EDC00D268D20611437A685268013A12010A4349
:102EEC002D4913434B612DE03B68012B15D12A4B27
:102EFC005A692B4B13407A68926811027A681269EE
:102F0C005208013A520511437A685268013A12018B
:102F1C000A43214913434B6114E01F4B5A69214B5F
:102F2C0013407A68926811027A6852695208013A21
:102F3C00520611437A685268013A12010A43164943
:102F4C0013434B61144B1B68134A43F080531360BB
:102F5C00FDF7A0FDB86009E0FDF79CFD0246BB68DB
:102F6C00D31A022B02D90323FB7305E00A4B1B680F
:102F7C0003F00053002BEFD0FB7B002B06D1064B4C
:102F8C005A697B689B69044913434B61FB7B184668
:102F9C001037BD4680BD00BF001002400F80FF07F8
:102FAC000F809FFF0F80FFF980B582B000AF786073
:102FBC007B68002B01D1012342E07B68D3F8883079
:102FCC00002B06D17B68002283F884207868FDF7FB
:102FDC0035FC7B682422C3F888207B681B681A6840
:102FEC007B681B6822F001021A607B689B6A002BCD
:102FFC0002D0786800F024FB786800F025F80346CE
:10300C00012B01D101231BE07B681B685A687B688C
:10301C001B6822F490425A607B681B689A687B6834
:10302C001B6822F02A029A607B681B681A687B680E
:10303C001B6842F001021A60786800F0A3FB03469B
:10304C0018460837BD4680BD2DE9B04F8CB000AF97
:10305C007861002387F82A307B699A687B691B6941
:10306C001A437B695B691A437B69DB691343FB6217
:10307C007B691B681A68AA4B13407A691268F96A53
:10308C000B4313607B691B685B6823F440517B69BD
:10309C00DA687B691B680A435A607B699B69FB622F
:1030AC007B691B689F4A934204D07B691B6AFA6A4E
:1030BC001343FB627B691B689B6823F06E4323F40C
:1030CC0030637A691268F96A0B4393607B691B68F9
:1030DC00DB6A23F00F017B695A6A7B691B680A4320
:1030EC00DA627B691B68904A934225D18F4BD3F8E7
:1030FC00883003F00303032B1AD801A252F823F0F3
:10310C001D3100082D31000825310008353100082B
:10311C00012387F82B3016E1022387F82B3012E1BC
:10312C00042387F82B300EE1082387F82B300AE1B3
:10313C00102387F82B3006E17B691B687C4A93428D
:10314C0038D17A4BD3F8883003F00C030C2B2DD8E4
:10315C0001A252F823F000BF99310008B9310008E0
:10316C00B9310008B9310008A9310008B93100089B
:10317C00B9310008B9310008A1310008B931000893
:10318C00B9310008B9310008B1310008002387F8C3
:10319C002B30D8E0022387F82B30D4E0042387F8B7
:1031AC002B30D0E0082387F82B30CCE0102387F8A5
:1031BC002B30C8E07B691B685E4A934225D15B4B80
:1031CC00D3F8883003F03003302B16D0302B18D8BE
:1031DC00202B0AD0202B14D8002B02D0102B08D077
:1031EC000FE0002387F82B30ADE0022387F82B305B
:1031FC00A9E0042387F82B30A5E0082387F82B30AF
:10320C00A1E0102387F82B309DE07B691B684A4AAC
:10321C00934225D1454BD3F8883003F0C003C02B23
:10322C0016D0C02B18D8802B0AD0802B14D8002B8A
:10323C0002D0402B08D00FE0002387F82B3082E01F
:10324C00022387F82B307EE0042387F82B307AE0BA
:10325C00082387F82B3076E0102387F82B3072E0A8
:10326C007B691B68354A93422AD1304BD3F888309E
:10327C0003F44073B3F5407F1AD0B3F5407F1BD8ED
:10328C00B3F5007F0CD0B3F5007F15D8002B03D01D
:10329C00B3F5807F08D00FE0002387F82B3052E085
:1032AC00022387F82B304EE0042387F82B304AE0BA
:1032BC00082387F82B3046E0102387F82B3042E0A8
:1032CC007B691B68174A93423AD1184BD3F8883064
:1032DC0003F44063B3F5406F1AD0B3F5406F1BD8BD
:1032EC00B3F5006F0CD0B3F5006F15D8002B03D0DD
:1032FC00B3F5806F08D00FE0002387F82B3022E065
:10330C00022387F82B301EE0042387F82B301AE0B9
:10331C00082387F82B3016E0102387F82B3012E0A7
:10332C00F369FFCF008000400038014000100240DC
:10333C000044004000480040004C00400050004059
:10334C00102387F82B307B691B68AE4A934240F000
:10335C00978097F82B30082B23D801A252F823F032
:10336C0091330008AF33000899330008AF330008DD
:10337C009F330008AF330008AF330008AF330008A9
:10338C00A7330008FEF7D0FF786210E09E4B7B62FB
:10339C000DE0FEF731FF786209E04FF400437B62E9
:1033AC0005E000237B62012387F82A3000BF7B6A8B
:1033BC00002B00F030817B695B6A944A32F8133041
:1033CC001A467B6AB3FBF2F3BB617B695A681346FE
:1033DC005B001344BA699A4205D37B695B681B0393
:1033EC00BA699A4203D9012387F82A3013E17B6A20
:1033FC000022BB60FA607B695B6A844A32F8133046
:10340C009BB200223B607A60D7E90023D7E9020126
:10341C00FCF7F8FE02460B46104619464FF0000228
:10342C004FF000030B0243EA10630202796949680A
:10343C00490800200C46054612EB040843EB05092D
:10344C007B695B6800229A46934652465B4640462F
:10345C004946FCF7D7FE02460B4613463B623B6AD5
:10346C00B3F5407F08D33B6AB3F5801F04D27B6968
:10347C001B683A6ADA60CEE0012387F82A30CAE08A
:10348C007B69DB69B3F5004F66D197F82B30082BBD
:10349C0027D801A252F823F0C9340008D13400080F
:1034AC00D9340008EF340008DF340008EF3400088A
:1034BC00EF340008EF340008E7340008FEF734FF5F
:1034CC00786214E0FEF746FF786210E04E4B7B62A8
:1034DC000DE0FEF791FE786209E04FF400437B6249
:1034EC0005E000237B62012387F82A3000BF7B6A4A
:1034FC00002B00F090807B695B6A444A32F81330F1
:10350C001A467B6AB3FBF2F35A007B695B685B0873
:10351C001A447B695B68B2FBF3F33B623B6A0F2B8B
:10352C0016D93B6AB3F5803F12D23B6A9BB223F0AB
:10353C000F03FB833B6A5B089BB203F007039AB251
:10354C00FB8B1343FB837B691B68FA8BDA6062E0AD
:10355C00012387F82A305EE097F82B30082B28D807
:10356C0001A252F823F000BF99350008A1350008DC
:10357C00A9350008BF350008AF350008BF35000875
:10358C00BF350008BF350008B7350008FEF7CCFE84
:10359C00786214E0FEF7DEFE786210E01A4B7B6274
:1035AC000DE0FEF729FE786209E04FF400437B62E0
:1035BC0005E000237B62012387F82A3000BF7B6A79
:1035CC00002B28D07B695B6A104A32F813301A46FC
:1035DC007B6AB3FBF2F27B695B685B081A447B691C
:1035EC005B68B2FBF3F33B623B6A0F2B10D93B6A6F
:1035FC00B3F5803F0CD23B6A9AB27B691B68DA60E8
:10360C0009E000BF008000400024F400843D000865
:10361C00012387F82A307B690122A3F86A207B6991
:10362C000122A3F868207B6900225A677B6900227B
:10363C009A6797F82A3018463037BD46BDE8B08FE8
:10364C0080B483B000AF78607B689B6A03F008039A
:10365C00002B0AD07B681B685B6823F400417B68F5
:10366C009A6B7B681B680A435A607B689B6A03F001
:10367C000103002B0AD07B681B685B6823F40031C4
:10368C007B68DA6A7B681B680A435A607B689B6AB2
:10369C0003F00203002B0AD07B681B685B6823F4E1
:1036AC0080317B681A6B7B681B680A435A607B68A5
:1036BC009B6A03F00403002B0AD07B681B685B68D1
:1036CC0023F480217B685A6B7B681B680A435A6021
:1036DC007B689B6A03F01003002B0AD07B681B6885
:1036EC009B6823F480517B68DA6B7B681B680A4308
:1036FC009A607B689B6A03F02003002B0AD07B68DE
:10370C001B689B6823F400517B681A6C7B681B68F0
:10371C000A439A607B689B6A03F04003002B1AD023
:10372C007B681B685B6823F480117B685A6C7B6830
:10373C001B680A435A607B685B6CB3F5801F0AD127
:10374C007B681B685B6823F4C0017B689A6C7B68A0
:10375C001B680A435A607B689B6A03F08003002B4A
:10376C000AD07B681B685B6823F400217B68DA6CE9
:10377C007B681B680A435A6000BF0C37BD465DF876
:10378C00047B704780B598B002AF78607B680022EC
:10379C00C3F89020FDF77EF978657B681B681B6881
:1037AC0003F00803082B2FD16FF07E4300937B6D41
:1037BC0000224FF40011786800F08EF80346002BBD
:1037CC0022D07B681B68BB63BB6B53E8003F7B63F9
:1037DC007B6B23F080033B657B681B681A463B6D53
:1037EC007B643A64396C7A6C41E80023FB63FB6BB5
:1037FC00002BE6D17B682022C3F888207B6800224E
:10380C0083F88420032363E07B681B681B6803F048
:10381C000403042B49D16FF07E4300937B6D00228F
:10382C004FF48001786800F057F80346002B3CD029
:10383C007B681B687B627B6A53E8003F3B623B6A98
:10384C0023F49073FB647B681B681A46FB6C3B6328
:10385C00FA62F96A3A6B41E80023BB62BB6A002B3F
:10386C00E6D17B681B6808333B613B6953E8003F3A
:10387C00FB60FB6823F00103BB647B681B680833A7
:10388C00BA6CFA61BB61B969FA6941E800237B61E2
:10389C007B69002BE5D17B682022C3F88C207B68E8
:1038AC00002283F88420032312E07B682022C3F8D3
:1038BC0088207B682022C3F88C207B680022DA6683
:1038CC007B6800221A677B68002283F8842000231F
:1038DC0018465837BD4680BD80B584B000AFF8603F
:1038EC00B9603B601346FB714FE0BB69B3F1FF3F1E
:1038FC004BD0FDF7CFF802463B68D31ABA699A420F
:10390C0002D3BB69002B01D103234EE0FB681B687B
:10391C001B6803F00403002B37D0BB68802B34D01A
:10392C00BB68402B31D0FB681B68DB6903F00803D4
:10393C00082B10D1FB681B6808221A62F86800F08B
:10394C0038F8FB680822C3F89020FB68002283F843
:10395C008420012329E0FB681B68DB6903F4006306
:10396C00B3F5006F11D1FB681B684FF400621A624B
:10397C00F86800F01EF8FB682022C3F89020FB6862
:10398C00002283F8842003230FE0FB681B68DA69AC
:10399C00BB681340BA689A420CBF01230023DBB208
:1039AC001A46FB799A42A0D0002318461037BD4620
:1039BC0080BD80B495B000AF78607B681B687B637A
:1039CC007B6B53E8003F3B633B6B23F49073FB64CE
:1039DC007B681B681A46FB6C3B64FA63F96B3A6CA8
:1039EC0041E80023BB63BB6B002BE6D17B681B68F3
:1039FC0008333B623B6A53E8003FFB61FB6923F0F1
:103A0C00805323F00103BB647B681B680833BA6CDA
:103A1C00FA62BB62B96AFA6A41E800237B627B6A8C
:103A2C00002BE3D17B68DB6E012B18D17B681B6804
:103A3C00FB60FB6853E8003FBB60BB6823F01003DE
:103A4C007B647B681B681A467B6CBB617A61796905
:103A5C00BA6941E800233B613B69002BE6D17B68E6
:103A6C002022C3F88C207B680022DA667B68002257
:103A7C005A6700BF5437BD465DF8047B704780B46D
:103A8C0085B000AF78607B6893F88430012B01D14E
:103A9C00022327E07B68012283F884207B682422A0
:103AAC00C3F888207B681B681B68FB607B681B68FD
:103ABC001A687B681B6822F001021A60FB6823F00D
:103ACC000053FB607B6800225A667B681B68FA68AF
:103ADC001A607B682022C3F888207B68002283F858
:103AEC008420002318461437BD465DF8047B7047CC
:103AFC0080B584B000AF786039607B6893F884300F
:103B0C00012B01D102232DE07B68012283F8842054
:103B1C007B682422C3F888207B681B681B68FB60C9
:103B2C007B681B681A687B681B6822F001021A60AC
:103B3C007B681B689B6823F060417B681B683A6854
:103B4C000A439A60786800F04FF87B681B68FA6843
:103B5C001A607B682022C3F888207B68002283F8D7
:103B6C008420002318461037BD4680BD80B584B034
:103B7C0000AF786039607B6893F88430012B01D1F9
:103B8C0002232DE07B68012283F884207B682422A9
:103B9C00C3F888207B681B681B68FB607B681B680C
:103BAC001A687B681B6822F001021A607B681B682C
:103BBC009B6823F060617B681B683A680A439A60D3
:103BCC00786800F011F87B681B68FA681A607B68EB
:103BDC002022C3F888207B68002283F884200023ED
:103BEC0018461037BD4680BD80B485B000AF7860F4
:103BFC007B685B6E002B08D17B680122A3F86A20DE
:103C0C007B680122A3F8682031E00823FB730823AA
:103C1C00BB737B681B689B685B0EDBB203F007030E
:103C2C007B737B681B689B685B0FDBB203F007033D
:103C3C003B73BB7B3A7B11498A5C02FB03F33A7BF7
:103C4C000F498A5C93FBF2F39AB27B68A3F86A2063
:103C5C00FB7B7A7B09498A5C02FB03F37A7B08497C
:103C6C008A5C93FBF2F39AB27B68A3F8682000BFDE
:103C7C001437BD465DF8047B704700BF9C3D0008BF
:103C8C00A43D000802440346934200D1704703F858
:103C9C00011BF9E770B50D4D0D4C641BA4100026EB
:103CAC00A64209D10B4D0C4C00F026F8641BA41055
:103CBC000026A64205D170BD55F8043B9847013645
:103CCC00EEE755F8043B98470136F2E7B43D00089F
:103CDC00B43D0008B43D0008B83D00080A449142C8
:103CEC0000F1FF3300D1704710B511F8014B03F808
:103CFC00014F9142F9D110BDF8B500BFF8BC08BC1A
:103D0C009E467047F8B500BFF8BC08BC9E4670478D
:103D1C00415354414748464952554C4C4148414CFB
:103D2C002741445A494D2E2E2E2E2E2E2E000000A9
:103D3C00000000000000000001020304060708094F
:103D4C000000000001020304A0860100400D0300E6
:103D5C00801A060000350C0040420F0080841E00C3
:103D6C0000093D0000127A000024F40000366E01B8
:103D7C000048E801006CDC020100020004000600AF
:103D8C0008000A000C001000200040008000000118
:103D9C0001010103070100000804020408010101EC
:083DAC0094C4FF7F0100000038
:043DB400E101000821
:043DB800BD01000841
:103DBC0000093D00100000000100000000000000A0
:103DCC0000000000000000000000000001000000E6
:0C3DDC00000000000000000000000000DB
:040000050800097D69
:00000001FF
